{
  "_format": "hh-sol-artifact-1",
  "contractName": "Muzik3",
  "sourceName": "contracts/Muzik3.sol",
  "abi": [
    {
      "inputs": [],
      "stateMutability": "nonpayable",
      "type": "constructor"
    },
    {
      "anonymous": false,
      "inputs": [
        {
          "indexed": true,
          "internalType": "address",
          "name": "owner",
          "type": "address"
        },
        {
          "indexed": true,
          "internalType": "address",
          "name": "approved",
          "type": "address"
        },
        {
          "indexed": true,
          "internalType": "uint256",
          "name": "tokenId",
          "type": "uint256"
        }
      ],
      "name": "Approval",
      "type": "event"
    },
    {
      "anonymous": false,
      "inputs": [
        {
          "indexed": true,
          "internalType": "address",
          "name": "owner",
          "type": "address"
        },
        {
          "indexed": true,
          "internalType": "address",
          "name": "operator",
          "type": "address"
        },
        {
          "indexed": false,
          "internalType": "bool",
          "name": "approved",
          "type": "bool"
        }
      ],
      "name": "ApprovalForAll",
      "type": "event"
    },
    {
      "anonymous": false,
      "inputs": [
        {
          "indexed": false,
          "internalType": "uint256",
          "name": "_fromTokenId",
          "type": "uint256"
        },
        {
          "indexed": false,
          "internalType": "uint256",
          "name": "_toTokenId",
          "type": "uint256"
        }
      ],
      "name": "BatchMetadataUpdate",
      "type": "event"
    },
    {
      "anonymous": false,
      "inputs": [
        {
          "indexed": false,
          "internalType": "uint256",
          "name": "_tokenId",
          "type": "uint256"
        }
      ],
      "name": "MetadataUpdate",
      "type": "event"
    },
    {
      "anonymous": false,
      "inputs": [
        {
          "indexed": true,
          "internalType": "address",
          "name": "previousOwner",
          "type": "address"
        },
        {
          "indexed": true,
          "internalType": "address",
          "name": "newOwner",
          "type": "address"
        }
      ],
      "name": "OwnershipTransferred",
      "type": "event"
    },
    {
      "anonymous": false,
      "inputs": [
        {
          "indexed": true,
          "internalType": "address",
          "name": "from",
          "type": "address"
        },
        {
          "indexed": true,
          "internalType": "address",
          "name": "to",
          "type": "address"
        },
        {
          "indexed": true,
          "internalType": "uint256",
          "name": "tokenId",
          "type": "uint256"
        }
      ],
      "name": "Transfer",
      "type": "event"
    },
    {
      "stateMutability": "payable",
      "type": "fallback"
    },
    {
      "inputs": [],
      "name": "_getBalance",
      "outputs": [
        {
          "internalType": "uint256",
          "name": "",
          "type": "uint256"
        }
      ],
      "stateMutability": "view",
      "type": "function"
    },
    {
      "inputs": [
        {
          "internalType": "uint256",
          "name": "_songId",
          "type": "uint256"
        },
        {
          "internalType": "uint256",
          "name": "_albumId",
          "type": "uint256"
        }
      ],
      "name": "addSongToAlbumById",
      "outputs": [],
      "stateMutability": "payable",
      "type": "function"
    },
    {
      "inputs": [
        {
          "internalType": "address",
          "name": "to",
          "type": "address"
        },
        {
          "internalType": "uint256",
          "name": "tokenId",
          "type": "uint256"
        }
      ],
      "name": "approve",
      "outputs": [],
      "stateMutability": "nonpayable",
      "type": "function"
    },
    {
      "inputs": [
        {
          "internalType": "address",
          "name": "owner",
          "type": "address"
        }
      ],
      "name": "balanceOf",
      "outputs": [
        {
          "internalType": "uint256",
          "name": "",
          "type": "uint256"
        }
      ],
      "stateMutability": "view",
      "type": "function"
    },
    {
      "inputs": [
        {
          "internalType": "address payable",
          "name": "artistAddress",
          "type": "address"
        },
        {
          "internalType": "string",
          "name": "uri",
          "type": "string"
        },
        {
          "internalType": "bool",
          "name": "publish",
          "type": "bool"
        }
      ],
      "name": "createAlbum",
      "outputs": [
        {
          "internalType": "uint256",
          "name": "",
          "type": "uint256"
        }
      ],
      "stateMutability": "payable",
      "type": "function"
    },
    {
      "inputs": [
        {
          "internalType": "address payable",
          "name": "artistAddress",
          "type": "address"
        },
        {
          "internalType": "string",
          "name": "uri",
          "type": "string"
        },
        {
          "internalType": "bool",
          "name": "_publish",
          "type": "bool"
        }
      ],
      "name": "createSong",
      "outputs": [
        {
          "internalType": "uint256",
          "name": "",
          "type": "uint256"
        }
      ],
      "stateMutability": "payable",
      "type": "function"
    },
    {
      "inputs": [
        {
          "internalType": "uint256",
          "name": "tokenId",
          "type": "uint256"
        }
      ],
      "name": "getApproved",
      "outputs": [
        {
          "internalType": "address",
          "name": "",
          "type": "address"
        }
      ],
      "stateMutability": "view",
      "type": "function"
    },
    {
      "inputs": [],
      "name": "getTotalAlbumId",
      "outputs": [
        {
          "internalType": "uint256",
          "name": "",
          "type": "uint256"
        }
      ],
      "stateMutability": "view",
      "type": "function"
    },
    {
      "inputs": [],
      "name": "getTotalSongId",
      "outputs": [
        {
          "internalType": "uint256",
          "name": "",
          "type": "uint256"
        }
      ],
      "stateMutability": "view",
      "type": "function"
    },
    {
      "inputs": [],
      "name": "getTotalTokenId",
      "outputs": [
        {
          "internalType": "uint256",
          "name": "",
          "type": "uint256"
        }
      ],
      "stateMutability": "view",
      "type": "function"
    },
    {
      "inputs": [
        {
          "internalType": "uint256",
          "name": "albumId",
          "type": "uint256"
        }
      ],
      "name": "getUrlByAlbumId",
      "outputs": [
        {
          "internalType": "string",
          "name": "",
          "type": "string"
        }
      ],
      "stateMutability": "view",
      "type": "function"
    },
    {
      "inputs": [
        {
          "internalType": "uint256",
          "name": "songId",
          "type": "uint256"
        }
      ],
      "name": "getUrlBySongId",
      "outputs": [
        {
          "internalType": "string",
          "name": "",
          "type": "string"
        }
      ],
      "stateMutability": "view",
      "type": "function"
    },
    {
      "inputs": [
        {
          "internalType": "address",
          "name": "owner",
          "type": "address"
        },
        {
          "internalType": "address",
          "name": "operator",
          "type": "address"
        }
      ],
      "name": "isApprovedForAll",
      "outputs": [
        {
          "internalType": "bool",
          "name": "",
          "type": "bool"
        }
      ],
      "stateMutability": "view",
      "type": "function"
    },
    {
      "inputs": [],
      "name": "name",
      "outputs": [
        {
          "internalType": "string",
          "name": "",
          "type": "string"
        }
      ],
      "stateMutability": "view",
      "type": "function"
    },
    {
      "inputs": [],
      "name": "owner",
      "outputs": [
        {
          "internalType": "address",
          "name": "",
          "type": "address"
        }
      ],
      "stateMutability": "view",
      "type": "function"
    },
    {
      "inputs": [
        {
          "internalType": "uint256",
          "name": "tokenId",
          "type": "uint256"
        }
      ],
      "name": "ownerOf",
      "outputs": [
        {
          "internalType": "address",
          "name": "",
          "type": "address"
        }
      ],
      "stateMutability": "view",
      "type": "function"
    },
    {
      "inputs": [],
      "name": "renounceOwnership",
      "outputs": [],
      "stateMutability": "nonpayable",
      "type": "function"
    },
    {
      "inputs": [
        {
          "internalType": "address",
          "name": "from",
          "type": "address"
        },
        {
          "internalType": "address",
          "name": "to",
          "type": "address"
        },
        {
          "internalType": "uint256",
          "name": "tokenId",
          "type": "uint256"
        }
      ],
      "name": "safeTransferFrom",
      "outputs": [],
      "stateMutability": "nonpayable",
      "type": "function"
    },
    {
      "inputs": [
        {
          "internalType": "address",
          "name": "from",
          "type": "address"
        },
        {
          "internalType": "address",
          "name": "to",
          "type": "address"
        },
        {
          "internalType": "uint256",
          "name": "tokenId",
          "type": "uint256"
        },
        {
          "internalType": "bytes",
          "name": "data",
          "type": "bytes"
        }
      ],
      "name": "safeTransferFrom",
      "outputs": [],
      "stateMutability": "nonpayable",
      "type": "function"
    },
    {
      "inputs": [
        {
          "internalType": "address",
          "name": "operator",
          "type": "address"
        },
        {
          "internalType": "bool",
          "name": "approved",
          "type": "bool"
        }
      ],
      "name": "setApprovalForAll",
      "outputs": [],
      "stateMutability": "nonpayable",
      "type": "function"
    },
    {
      "inputs": [
        {
          "internalType": "bytes4",
          "name": "interfaceId",
          "type": "bytes4"
        }
      ],
      "name": "supportsInterface",
      "outputs": [
        {
          "internalType": "bool",
          "name": "",
          "type": "bool"
        }
      ],
      "stateMutability": "view",
      "type": "function"
    },
    {
      "inputs": [],
      "name": "symbol",
      "outputs": [
        {
          "internalType": "string",
          "name": "",
          "type": "string"
        }
      ],
      "stateMutability": "view",
      "type": "function"
    },
    {
      "inputs": [
        {
          "internalType": "uint256",
          "name": "tokenId",
          "type": "uint256"
        }
      ],
      "name": "tokenURI",
      "outputs": [
        {
          "internalType": "string",
          "name": "",
          "type": "string"
        }
      ],
      "stateMutability": "view",
      "type": "function"
    },
    {
      "inputs": [
        {
          "internalType": "address",
          "name": "from",
          "type": "address"
        },
        {
          "internalType": "address",
          "name": "to",
          "type": "address"
        },
        {
          "internalType": "uint256",
          "name": "tokenId",
          "type": "uint256"
        }
      ],
      "name": "transferFrom",
      "outputs": [],
      "stateMutability": "nonpayable",
      "type": "function"
    },
    {
      "inputs": [
        {
          "internalType": "address",
          "name": "newOwner",
          "type": "address"
        }
      ],
      "name": "transferOwnership",
      "outputs": [],
      "stateMutability": "nonpayable",
      "type": "function"
    },
    {
      "inputs": [],
      "name": "withdraw",
      "outputs": [],
      "stateMutability": "nonpayable",
      "type": "function"
    },
    {
      "stateMutability": "payable",
      "type": "receive"
    }
  ],
  "bytecode": "0x60806040526000600c553480156200001657600080fd5b506040518060400160405280600681526020017f4d757a696b3300000000000000000000000000000000000000000000000000008152506040518060400160405280600381526020017f4d555a0000000000000000000000000000000000000000000000000000000000815250620000a362000097620000cf60201b60201c565b620000d760201b60201c565b8160019081620000b4919062000415565b508060029081620000c6919062000415565b505050620004fc565b600033905090565b60008060009054906101000a900473ffffffffffffffffffffffffffffffffffffffff169050816000806101000a81548173ffffffffffffffffffffffffffffffffffffffff021916908373ffffffffffffffffffffffffffffffffffffffff1602179055508173ffffffffffffffffffffffffffffffffffffffff168173ffffffffffffffffffffffffffffffffffffffff167f8be0079c531659141344cd1fd0a4f28419497f9722a3daafe3b4186f6b6457e060405160405180910390a35050565b600081519050919050565b7f4e487b7100000000000000000000000000000000000000000000000000000000600052604160045260246000fd5b7f4e487b7100000000000000000000000000000000000000000000000000000000600052602260045260246000fd5b600060028204905060018216806200021d57607f821691505b602082108103620002335762000232620001d5565b5b50919050565b60008190508160005260206000209050919050565b60006020601f8301049050919050565b600082821b905092915050565b6000600883026200029d7fffffffffffffffffffffffffffffffffffffffffffffffffffffffffffffffff826200025e565b620002a986836200025e565b95508019841693508086168417925050509392505050565b6000819050919050565b6000819050919050565b6000620002f6620002f0620002ea84620002c1565b620002cb565b620002c1565b9050919050565b6000819050919050565b6200031283620002d5565b6200032a6200032182620002fd565b8484546200026b565b825550505050565b600090565b6200034162000332565b6200034e81848462000307565b505050565b5b8181101562000376576200036a60008262000337565b60018101905062000354565b5050565b601f821115620003c5576200038f8162000239565b6200039a846200024e565b81016020851015620003aa578190505b620003c2620003b9856200024e565b83018262000353565b50505b505050565b600082821c905092915050565b6000620003ea60001984600802620003ca565b1980831691505092915050565b6000620004058383620003d7565b9150826002028217905092915050565b62000420826200019b565b67ffffffffffffffff8111156200043c576200043b620001a6565b5b62000448825462000204565b620004558282856200037a565b600060209050601f8311600181146200048d576000841562000478578287015190505b620004848582620003f7565b865550620004f4565b601f1984166200049d8662000239565b60005b82811015620004c757848901518255600182019150602085019450602081019050620004a0565b86831015620004e75784890151620004e3601f891682620003d7565b8355505b6001600288020188555050505b505050505050565b614606806200050c6000396000f3fe6080604052600436106101855760003560e01c8063715018a6116100d1578063b88d4fde1161008a578063e3c125df11610064578063e3c125df14610587578063e985e9c5146105b2578063efff5e2f146105ef578063f2fde38b1461061a5761018c565b8063b88d4fde146104e4578063c02010b61461050d578063c87b56dd1461054a5761018c565b8063715018a6146103e65780638685be10146103fd5780638da5cb5b1461043a5780638e7ccb341461046557806395d89b4114610490578063a22cb465146104bb5761018c565b80633ccfd60b1161013e57806362c593f41161011857806362c593f4146103205780636352211e146103505780636e0a384c1461038d57806370a08231146103a95761018c565b80633ccfd60b146102b057806342842e0e146102c75780634b033b1e146102f05761018c565b806301ffc9a71461018e57806306fdde03146101cb578063081812fc146101f6578063095ea7b31461023357806323b872dd1461025c5780633093aa7f146102855761018c565b3661018c57005b005b34801561019a57600080fd5b506101b560048036038101906101b09190612c2b565b610643565b6040516101c29190612c73565b60405180910390f35b3480156101d757600080fd5b506101e06106a4565b6040516101ed9190612d1e565b60405180910390f35b34801561020257600080fd5b5061021d60048036038101906102189190612d76565b610736565b60405161022a9190612de4565b60405180910390f35b34801561023f57600080fd5b5061025a60048036038101906102559190612e2b565b61077c565b005b34801561026857600080fd5b50610283600480360381019061027e9190612e6b565b610893565b005b34801561029157600080fd5b5061029a6108f3565b6040516102a79190612ecd565b60405180910390f35b3480156102bc57600080fd5b506102c5610904565b005b3480156102d357600080fd5b506102ee60048036038101906102e99190612e6b565b610a97565b005b61030a60048036038101906103059190613087565b610ab7565b6040516103179190612ecd565b60405180910390f35b61033a60048036038101906103359190613087565b610cd3565b6040516103479190612ecd565b60405180910390f35b34801561035c57600080fd5b5061037760048036038101906103729190612d76565b610ede565b6040516103849190612de4565b60405180910390f35b6103a760048036038101906103a291906130f6565b610f64565b005b3480156103b557600080fd5b506103d060048036038101906103cb9190613136565b6111d2565b6040516103dd9190612ecd565b60405180910390f35b3480156103f257600080fd5b506103fb611289565b005b34801561040957600080fd5b50610424600480360381019061041f9190612d76565b61129d565b6040516104319190612d1e565b60405180910390f35b34801561044657600080fd5b5061044f6114cc565b60405161045c9190612de4565b60405180910390f35b34801561047157600080fd5b5061047a6114f5565b6040516104879190612ecd565b60405180910390f35b34801561049c57600080fd5b506104a5611506565b6040516104b29190612d1e565b60405180910390f35b3480156104c757600080fd5b506104e260048036038101906104dd9190613163565b611598565b005b3480156104f057600080fd5b5061050b60048036038101906105069190613244565b6115ae565b005b34801561051957600080fd5b50610534600480360381019061052f9190612d76565b611610565b6040516105419190612d1e565b60405180910390f35b34801561055657600080fd5b50610571600480360381019061056c9190612d76565b611835565b60405161057e9190612d1e565b60405180910390f35b34801561059357600080fd5b5061059c611947565b6040516105a99190612ecd565b60405180910390f35b3480156105be57600080fd5b506105d960048036038101906105d491906132c7565b611958565b6040516105e69190612c73565b60405180910390f35b3480156105fb57600080fd5b506106046119ec565b6040516106119190612ecd565b60405180910390f35b34801561062657600080fd5b50610641600480360381019061063c9190613136565b6119f4565b005b6000634906490660e01b7bffffffffffffffffffffffffffffffffffffffffffffffffffffffff1916827bffffffffffffffffffffffffffffffffffffffffffffffffffffffff1916148061069d575061069c82611a77565b5b9050919050565b6060600180546106b390613336565b80601f01602080910402602001604051908101604052809291908181526020018280546106df90613336565b801561072c5780601f106107015761010080835404028352916020019161072c565b820191906000526020600020905b81548152906001019060200180831161070f57829003601f168201915b5050505050905090565b600061074182611b59565b6005600083815260200190815260200160002060009054906101000a900473ffffffffffffffffffffffffffffffffffffffff169050919050565b600061078782610ede565b90508073ffffffffffffffffffffffffffffffffffffffff168373ffffffffffffffffffffffffffffffffffffffff16036107f7576040517f08c379a00000000000000000000000000000000000000000000000000000000081526004016107ee906133d9565b60405180910390fd5b8073ffffffffffffffffffffffffffffffffffffffff16610816611ba4565b73ffffffffffffffffffffffffffffffffffffffff16148061084557506108448161083f611ba4565b611958565b5b610884576040517f08c379a000000000000000000000000000000000000000000000000000000000815260040161087b9061346b565b60405180910390fd5b61088e8383611bac565b505050565b6108a461089e611ba4565b82611c65565b6108e3576040517f08c379a00000000000000000000000000000000000000000000000000000000081526004016108da906134fd565b60405180910390fd5b6108ee838383611cfa565b505050565b60006108ff600a611ff3565b905090565b61090c612001565b600860009054906101000a900460ff161561095c576040517f08c379a000000000000000000000000000000000000000000000000000000000815260040161095390613569565b60405180910390fd5b6001600860006101000a81548160ff0219169083151502179055506000479050600081116109bf576040517f08c379a00000000000000000000000000000000000000000000000000000000081526004016109b6906135fb565b60405180910390fd5b60006109c96114cc565b905060008173ffffffffffffffffffffffffffffffffffffffff16836040516109f19061364c565b60006040518083038185875af1925050503d8060008114610a2e576040519150601f19603f3d011682016040523d82523d6000602084013e610a33565b606091505b5050905080610a77576040517f08c379a0000000000000000000000000000000000000000000000000000000008152600401610a6e906136ad565b60405180910390fd5b5050506000600860006101000a81548160ff021916908315150217905550565b610ab2838383604051806020016040528060008152506115ae565b505050565b6000806064600c54670de0b6b3a7640000610ad291906136fc565b610adc919061376d565b9050803414610b20576040517f08c379a0000000000000000000000000000000000000000000000000000000008152600401610b1790613810565b60405180910390fd5b610b2a600b61207f565b610b34600961207f565b6000610b40600b611ff3565b90506000610b4e6009611ff3565b9050610b5a8782612095565b610b6481876120b3565b60006040518060e001604052808481526020018973ffffffffffffffffffffffffffffffffffffffff1681526020018881526020016000815260200160008152602001871515815260200160011515815250905082600e88604051610bc9919061386c565b90815260200160405180910390208190555080601060008581526020019081526020016000206000820151816000015560208201518160010160006101000a81548173ffffffffffffffffffffffffffffffffffffffff021916908373ffffffffffffffffffffffffffffffffffffffff1602179055506040820151816002019081610c559190613a2f565b50606082015181600301556080820151816004015560a08201518160050160006101000a81548160ff02191690831515021790555060c08201518160050160016101000a81548160ff021916908315150217905550905050826011600084815260200190815260200160002081905550819450505050509392505050565b6000806064600c54670de0b6b3a7640000610cee91906136fc565b610cf8919061376d565b9050803414610d3c576040517f08c379a0000000000000000000000000000000000000000000000000000000008152600401610d3390613b73565b60405180910390fd5b610d46600a61207f565b610d50600961207f565b6000610d5c600a611ff3565b90506000610d6a6009611ff3565b9050610d768782612095565b610d8081876120b3565b60006040518060c001604052808481526020018973ffffffffffffffffffffffffffffffffffffffff16815260200188815260200160011515815260200187151581526020016000815250905082600d88604051610dde919061386c565b90815260200160405180910390208190555080600f60008581526020019081526020016000206000820151816000015560208201518160010160006101000a81548173ffffffffffffffffffffffffffffffffffffffff021916908373ffffffffffffffffffffffffffffffffffffffff1602179055506040820151816002019081610e6a9190613a2f565b5060608201518160030160006101000a81548160ff02191690831515021790555060808201518160030160016101000a81548160ff02191690831515021790555060a08201518160040155905050826012600084815260200190815260200160002081905550819450505050509392505050565b600080610eea83612157565b9050600073ffffffffffffffffffffffffffffffffffffffff168173ffffffffffffffffffffffffffffffffffffffff1603610f5b576040517f08c379a0000000000000000000000000000000000000000000000000000000008152600401610f5290613bdf565b60405180910390fd5b80915050919050565b60006010600084815260200190815260200160002090506000600f600084815260200190815260200160002090508160050160019054906101000a900460ff168015610fbe57508060030160009054906101000a900460ff165b610ffd576040517f08c379a0000000000000000000000000000000000000000000000000000000008152600401610ff490613c4b565b60405180910390fd5b3373ffffffffffffffffffffffffffffffffffffffff168260010160009054906101000a900473ffffffffffffffffffffffffffffffffffffffff1673ffffffffffffffffffffffffffffffffffffffff161480156110ab57503373ffffffffffffffffffffffffffffffffffffffff168160010160009054906101000a900473ffffffffffffffffffffffffffffffffffffffff1673ffffffffffffffffffffffffffffffffffffffff16145b6110ea576040517f08c379a00000000000000000000000000000000000000000000000000000000081526004016110e190613cdd565b60405180910390fd5b60136000848152602001908152602001600020600085815260200190815260200160002060009054906101000a900460ff1615801561112d575060008260040154145b61116c576040517f08c379a000000000000000000000000000000000000000000000000000000000815260040161116390613d6f565b60405180910390fd5b828260040181905550600160136000858152602001908152602001600020600086815260200190815260200160002060006101000a81548160ff0219169083151502179055508060040160008154809291906111c790613d8f565b919050555050505050565b60008073ffffffffffffffffffffffffffffffffffffffff168273ffffffffffffffffffffffffffffffffffffffff1603611242576040517f08c379a000000000000000000000000000000000000000000000000000000000815260040161123990613e49565b60405180910390fd5b600460008373ffffffffffffffffffffffffffffffffffffffff1673ffffffffffffffffffffffffffffffffffffffff168152602001908152602001600020549050919050565b611291612001565b61129b6000612194565b565b60606000601060008481526020019081526020016000206040518060e0016040529081600082015481526020016001820160009054906101000a900473ffffffffffffffffffffffffffffffffffffffff1673ffffffffffffffffffffffffffffffffffffffff1673ffffffffffffffffffffffffffffffffffffffff16815260200160028201805461132f90613336565b80601f016020809104026020016040519081016040528092919081815260200182805461135b90613336565b80156113a85780601f1061137d576101008083540402835291602001916113a8565b820191906000526020600020905b81548152906001019060200180831161138b57829003601f168201915b5050505050815260200160038201548152602001600482015481526020016005820160009054906101000a900460ff161515151581526020016005820160019054906101000a900460ff16151515158152505090508060c00151611441576040517f08c379a000000000000000000000000000000000000000000000000000000000815260040161143890613eb5565b60405180910390fd5b8060a00151806114805750806020015173ffffffffffffffffffffffffffffffffffffffff163373ffffffffffffffffffffffffffffffffffffffff16145b6114bf576040517f08c379a00000000000000000000000000000000000000000000000000000000081526004016114b690613f47565b60405180910390fd5b8060400151915050919050565b60008060009054906101000a900473ffffffffffffffffffffffffffffffffffffffff16905090565b6000611501600b611ff3565b905090565b60606002805461151590613336565b80601f016020809104026020016040519081016040528092919081815260200182805461154190613336565b801561158e5780601f106115635761010080835404028352916020019161158e565b820191906000526020600020905b81548152906001019060200180831161157157829003601f168201915b5050505050905090565b6115aa6115a3611ba4565b8383612258565b5050565b6115bf6115b9611ba4565b83611c65565b6115fe576040517f08c379a00000000000000000000000000000000000000000000000000000000081526004016115f5906134fd565b60405180910390fd5b61160a848484846123c4565b50505050565b60606000600f60008481526020019081526020016000206040518060c0016040529081600082015481526020016001820160009054906101000a900473ffffffffffffffffffffffffffffffffffffffff1673ffffffffffffffffffffffffffffffffffffffff1673ffffffffffffffffffffffffffffffffffffffff1681526020016002820180546116a290613336565b80601f01602080910402602001604051908101604052809291908181526020018280546116ce90613336565b801561171b5780601f106116f05761010080835404028352916020019161171b565b820191906000526020600020905b8154815290600101906020018083116116fe57829003601f168201915b505050505081526020016003820160009054906101000a900460ff161515151581526020016003820160019054906101000a900460ff16151515158152602001600482015481525050905080606001516117aa576040517f08c379a00000000000000000000000000000000000000000000000000000000081526004016117a190613fb3565b60405180910390fd5b8060800151806117e95750806020015173ffffffffffffffffffffffffffffffffffffffff163373ffffffffffffffffffffffffffffffffffffffff16145b611828576040517f08c379a000000000000000000000000000000000000000000000000000000000815260040161181f9061401f565b60405180910390fd5b8060400151915050919050565b606061184082611b59565b600060076000848152602001908152602001600020805461186090613336565b80601f016020809104026020016040519081016040528092919081815260200182805461188c90613336565b80156118d95780601f106118ae576101008083540402835291602001916118d9565b820191906000526020600020905b8154815290600101906020018083116118bc57829003601f168201915b5050505050905060006118ea612420565b905060008151036118ff578192505050611942565b60008251111561193457808260405160200161191c92919061403f565b60405160208183030381529060405292505050611942565b61193d8461245d565b925050505b919050565b60006119536009611ff3565b905090565b6000600660008473ffffffffffffffffffffffffffffffffffffffff1673ffffffffffffffffffffffffffffffffffffffff16815260200190815260200160002060008373ffffffffffffffffffffffffffffffffffffffff1673ffffffffffffffffffffffffffffffffffffffff16815260200190815260200160002060009054906101000a900460ff16905092915050565b600047905090565b6119fc612001565b600073ffffffffffffffffffffffffffffffffffffffff168173ffffffffffffffffffffffffffffffffffffffff1603611a6b576040517f08c379a0000000000000000000000000000000000000000000000000000000008152600401611a62906140d5565b60405180910390fd5b611a7481612194565b50565b60007f80ac58cd000000000000000000000000000000000000000000000000000000007bffffffffffffffffffffffffffffffffffffffffffffffffffffffff1916827bffffffffffffffffffffffffffffffffffffffffffffffffffffffff19161480611b4257507f5b5e139f000000000000000000000000000000000000000000000000000000007bffffffffffffffffffffffffffffffffffffffffffffffffffffffff1916827bffffffffffffffffffffffffffffffffffffffffffffffffffffffff1916145b80611b525750611b51826124c5565b5b9050919050565b611b628161252f565b611ba1576040517f08c379a0000000000000000000000000000000000000000000000000000000008152600401611b9890613bdf565b60405180910390fd5b50565b600033905090565b816005600083815260200190815260200160002060006101000a81548173ffffffffffffffffffffffffffffffffffffffff021916908373ffffffffffffffffffffffffffffffffffffffff160217905550808273ffffffffffffffffffffffffffffffffffffffff16611c1f83610ede565b73ffffffffffffffffffffffffffffffffffffffff167f8c5be1e5ebec7d5bd14f71427d1e84f3dd0314c0f7b2291e5b200ac8c7c3b92560405160405180910390a45050565b600080611c7183610ede565b90508073ffffffffffffffffffffffffffffffffffffffff168473ffffffffffffffffffffffffffffffffffffffff161480611cb35750611cb28185611958565b5b80611cf157508373ffffffffffffffffffffffffffffffffffffffff16611cd984610736565b73ffffffffffffffffffffffffffffffffffffffff16145b91505092915050565b8273ffffffffffffffffffffffffffffffffffffffff16611d1a82610ede565b73ffffffffffffffffffffffffffffffffffffffff1614611d70576040517f08c379a0000000000000000000000000000000000000000000000000000000008152600401611d6790614167565b60405180910390fd5b600073ffffffffffffffffffffffffffffffffffffffff168273ffffffffffffffffffffffffffffffffffffffff1603611ddf576040517f08c379a0000000000000000000000000000000000000000000000000000000008152600401611dd6906141f9565b60405180910390fd5b611dec8383836001612570565b8273ffffffffffffffffffffffffffffffffffffffff16611e0c82610ede565b73ffffffffffffffffffffffffffffffffffffffff1614611e62576040517f08c379a0000000000000000000000000000000000000000000000000000000008152600401611e5990614167565b60405180910390fd5b6005600082815260200190815260200160002060006101000a81549073ffffffffffffffffffffffffffffffffffffffff02191690556001600460008573ffffffffffffffffffffffffffffffffffffffff1673ffffffffffffffffffffffffffffffffffffffff168152602001908152602001600020600082825403925050819055506001600460008473ffffffffffffffffffffffffffffffffffffffff1673ffffffffffffffffffffffffffffffffffffffff16815260200190815260200160002060008282540192505081905550816003600083815260200190815260200160002060006101000a81548173ffffffffffffffffffffffffffffffffffffffff021916908373ffffffffffffffffffffffffffffffffffffffff160217905550808273ffffffffffffffffffffffffffffffffffffffff168473ffffffffffffffffffffffffffffffffffffffff167fddf252ad1be2c89b69c2b068fc378daa952ba7f163c4a11628f55a4df523b3ef60405160405180910390a4611fee8383836001612576565b505050565b600081600001549050919050565b612009611ba4565b73ffffffffffffffffffffffffffffffffffffffff166120276114cc565b73ffffffffffffffffffffffffffffffffffffffff161461207d576040517f08c379a000000000000000000000000000000000000000000000000000000000815260040161207490614265565b60405180910390fd5b565b6001816000016000828254019250508190555050565b6120af82826040518060200160405280600081525061257c565b5050565b6120bc8261252f565b6120fb576040517f08c379a00000000000000000000000000000000000000000000000000000000081526004016120f2906142f7565b60405180910390fd5b8060076000848152602001908152602001600020908161211b9190613a2f565b507ff8e1a15aba9398e019f0b49df1a4fde98ee17ae345cb5f6b5e2c27f5033e8ce78260405161214b9190612ecd565b60405180910390a15050565b60006003600083815260200190815260200160002060009054906101000a900473ffffffffffffffffffffffffffffffffffffffff169050919050565b60008060009054906101000a900473ffffffffffffffffffffffffffffffffffffffff169050816000806101000a81548173ffffffffffffffffffffffffffffffffffffffff021916908373ffffffffffffffffffffffffffffffffffffffff1602179055508173ffffffffffffffffffffffffffffffffffffffff168173ffffffffffffffffffffffffffffffffffffffff167f8be0079c531659141344cd1fd0a4f28419497f9722a3daafe3b4186f6b6457e060405160405180910390a35050565b8173ffffffffffffffffffffffffffffffffffffffff168373ffffffffffffffffffffffffffffffffffffffff16036122c6576040517f08c379a00000000000000000000000000000000000000000000000000000000081526004016122bd90614363565b60405180910390fd5b80600660008573ffffffffffffffffffffffffffffffffffffffff1673ffffffffffffffffffffffffffffffffffffffff16815260200190815260200160002060008473ffffffffffffffffffffffffffffffffffffffff1673ffffffffffffffffffffffffffffffffffffffff16815260200190815260200160002060006101000a81548160ff0219169083151502179055508173ffffffffffffffffffffffffffffffffffffffff168373ffffffffffffffffffffffffffffffffffffffff167f17307eab39ab6107e8899845ad3d59bd9653f200f220920489ca2b5937696c31836040516123b79190612c73565b60405180910390a3505050565b6123cf848484611cfa565b6123db848484846125d7565b61241a576040517f08c379a0000000000000000000000000000000000000000000000000000000008152600401612411906143f5565b60405180910390fd5b50505050565b60606040518060400160405280600781526020017f697066733a2f2f00000000000000000000000000000000000000000000000000815250905090565b606061246882611b59565b6000612472612420565b9050600081511161249257604051806020016040528060008152506124bd565b8061249c8461275e565b6040516020016124ad92919061403f565b6040516020818303038152906040525b915050919050565b60007f01ffc9a7000000000000000000000000000000000000000000000000000000007bffffffffffffffffffffffffffffffffffffffffffffffffffffffff1916827bffffffffffffffffffffffffffffffffffffffffffffffffffffffff1916149050919050565b60008073ffffffffffffffffffffffffffffffffffffffff1661255183612157565b73ffffffffffffffffffffffffffffffffffffffff1614159050919050565b50505050565b50505050565b612586838361282c565b61259360008484846125d7565b6125d2576040517f08c379a00000000000000000000000000000000000000000000000000000000081526004016125c9906143f5565b60405180910390fd5b505050565b60006125f88473ffffffffffffffffffffffffffffffffffffffff16612a49565b15612751578373ffffffffffffffffffffffffffffffffffffffff1663150b7a02612621611ba4565b8786866040518563ffffffff1660e01b8152600401612643949392919061446a565b6020604051808303816000875af192505050801561267f57506040513d601f19601f8201168201806040525081019061267c91906144cb565b60015b612701573d80600081146126af576040519150601f19603f3d011682016040523d82523d6000602084013e6126b4565b606091505b5060008151036126f9576040517f08c379a00000000000000000000000000000000000000000000000000000000081526004016126f0906143f5565b60405180910390fd5b805181602001fd5b63150b7a0260e01b7bffffffffffffffffffffffffffffffffffffffffffffffffffffffff1916817bffffffffffffffffffffffffffffffffffffffffffffffffffffffff191614915050612756565b600190505b949350505050565b60606000600161276d84612a6c565b01905060008167ffffffffffffffff81111561278c5761278b612f30565b5b6040519080825280601f01601f1916602001820160405280156127be5781602001600182028036833780820191505090505b509050600082602001820190505b600115612821578080600190039150507f3031323334353637383961626364656600000000000000000000000000000000600a86061a8153600a85816128155761281461373e565b5b049450600085036127cc575b819350505050919050565b600073ffffffffffffffffffffffffffffffffffffffff168273ffffffffffffffffffffffffffffffffffffffff160361289b576040517f08c379a000000000000000000000000000000000000000000000000000000000815260040161289290614544565b60405180910390fd5b6128a48161252f565b156128e4576040517f08c379a00000000000000000000000000000000000000000000000000000000081526004016128db906145b0565b60405180910390fd5b6128f2600083836001612570565b6128fb8161252f565b1561293b576040517f08c379a0000000000000000000000000000000000000000000000000000000008152600401612932906145b0565b60405180910390fd5b6001600460008473ffffffffffffffffffffffffffffffffffffffff1673ffffffffffffffffffffffffffffffffffffffff16815260200190815260200160002060008282540192505081905550816003600083815260200190815260200160002060006101000a81548173ffffffffffffffffffffffffffffffffffffffff021916908373ffffffffffffffffffffffffffffffffffffffff160217905550808273ffffffffffffffffffffffffffffffffffffffff16600073ffffffffffffffffffffffffffffffffffffffff167fddf252ad1be2c89b69c2b068fc378daa952ba7f163c4a11628f55a4df523b3ef60405160405180910390a4612a45600083836001612576565b5050565b6000808273ffffffffffffffffffffffffffffffffffffffff163b119050919050565b600080600090507a184f03e93ff9f4daa797ed6e38ed64bf6a1f0100000000000000008310612aca577a184f03e93ff9f4daa797ed6e38ed64bf6a1f0100000000000000008381612ac057612abf61373e565b5b0492506040810190505b6d04ee2d6d415b85acef81000000008310612b07576d04ee2d6d415b85acef81000000008381612afd57612afc61373e565b5b0492506020810190505b662386f26fc100008310612b3657662386f26fc100008381612b2c57612b2b61373e565b5b0492506010810190505b6305f5e1008310612b5f576305f5e1008381612b5557612b5461373e565b5b0492506008810190505b6127108310612b84576127108381612b7a57612b7961373e565b5b0492506004810190505b60648310612ba75760648381612b9d57612b9c61373e565b5b0492506002810190505b600a8310612bb6576001810190505b80915050919050565b6000604051905090565b600080fd5b600080fd5b60007fffffffff0000000000000000000000000000000000000000000000000000000082169050919050565b612c0881612bd3565b8114612c1357600080fd5b50565b600081359050612c2581612bff565b92915050565b600060208284031215612c4157612c40612bc9565b5b6000612c4f84828501612c16565b91505092915050565b60008115159050919050565b612c6d81612c58565b82525050565b6000602082019050612c886000830184612c64565b92915050565b600081519050919050565b600082825260208201905092915050565b60005b83811015612cc8578082015181840152602081019050612cad565b60008484015250505050565b6000601f19601f8301169050919050565b6000612cf082612c8e565b612cfa8185612c99565b9350612d0a818560208601612caa565b612d1381612cd4565b840191505092915050565b60006020820190508181036000830152612d388184612ce5565b905092915050565b6000819050919050565b612d5381612d40565b8114612d5e57600080fd5b50565b600081359050612d7081612d4a565b92915050565b600060208284031215612d8c57612d8b612bc9565b5b6000612d9a84828501612d61565b91505092915050565b600073ffffffffffffffffffffffffffffffffffffffff82169050919050565b6000612dce82612da3565b9050919050565b612dde81612dc3565b82525050565b6000602082019050612df96000830184612dd5565b92915050565b612e0881612dc3565b8114612e1357600080fd5b50565b600081359050612e2581612dff565b92915050565b60008060408385031215612e4257612e41612bc9565b5b6000612e5085828601612e16565b9250506020612e6185828601612d61565b9150509250929050565b600080600060608486031215612e8457612e83612bc9565b5b6000612e9286828701612e16565b9350506020612ea386828701612e16565b9250506040612eb486828701612d61565b9150509250925092565b612ec781612d40565b82525050565b6000602082019050612ee26000830184612ebe565b92915050565b6000612ef382612da3565b9050919050565b612f0381612ee8565b8114612f0e57600080fd5b50565b600081359050612f2081612efa565b92915050565b600080fd5b600080fd5b7f4e487b7100000000000000000000000000000000000000000000000000000000600052604160045260246000fd5b612f6882612cd4565b810181811067ffffffffffffffff82111715612f8757612f86612f30565b5b80604052505050565b6000612f9a612bbf565b9050612fa68282612f5f565b919050565b600067ffffffffffffffff821115612fc657612fc5612f30565b5b612fcf82612cd4565b9050602081019050919050565b82818337600083830152505050565b6000612ffe612ff984612fab565b612f90565b90508281526020810184848401111561301a57613019612f2b565b5b613025848285612fdc565b509392505050565b600082601f83011261304257613041612f26565b5b8135613052848260208601612feb565b91505092915050565b61306481612c58565b811461306f57600080fd5b50565b6000813590506130818161305b565b92915050565b6000806000606084860312156130a05761309f612bc9565b5b60006130ae86828701612f11565b935050602084013567ffffffffffffffff8111156130cf576130ce612bce565b5b6130db8682870161302d565b92505060406130ec86828701613072565b9150509250925092565b6000806040838503121561310d5761310c612bc9565b5b600061311b85828601612d61565b925050602061312c85828601612d61565b9150509250929050565b60006020828403121561314c5761314b612bc9565b5b600061315a84828501612e16565b91505092915050565b6000806040838503121561317a57613179612bc9565b5b600061318885828601612e16565b925050602061319985828601613072565b9150509250929050565b600067ffffffffffffffff8211156131be576131bd612f30565b5b6131c782612cd4565b9050602081019050919050565b60006131e76131e2846131a3565b612f90565b90508281526020810184848401111561320357613202612f2b565b5b61320e848285612fdc565b509392505050565b600082601f83011261322b5761322a612f26565b5b813561323b8482602086016131d4565b91505092915050565b6000806000806080858703121561325e5761325d612bc9565b5b600061326c87828801612e16565b945050602061327d87828801612e16565b935050604061328e87828801612d61565b925050606085013567ffffffffffffffff8111156132af576132ae612bce565b5b6132bb87828801613216565b91505092959194509250565b600080604083850312156132de576132dd612bc9565b5b60006132ec85828601612e16565b92505060206132fd85828601612e16565b9150509250929050565b7f4e487b7100000000000000000000000000000000000000000000000000000000600052602260045260246000fd5b6000600282049050600182168061334e57607f821691505b60208210810361336157613360613307565b5b50919050565b7f4552433732313a20617070726f76616c20746f2063757272656e74206f776e6560008201527f7200000000000000000000000000000000000000000000000000000000000000602082015250565b60006133c3602183612c99565b91506133ce82613367565b604082019050919050565b600060208201905081810360008301526133f2816133b6565b9050919050565b7f4552433732313a20617070726f76652063616c6c6572206973206e6f7420746f60008201527f6b656e206f776e6572206f7220617070726f76656420666f7220616c6c000000602082015250565b6000613455603d83612c99565b9150613460826133f9565b604082019050919050565b6000602082019050818103600083015261348481613448565b9050919050565b7f4552433732313a2063616c6c6572206973206e6f7420746f6b656e206f776e6560008201527f72206f7220617070726f76656400000000000000000000000000000000000000602082015250565b60006134e7602d83612c99565b91506134f28261348b565b604082019050919050565b60006020820190508181036000830152613516816134da565b9050919050565b7f4e6f2072652d656e7472616e6379000000000000000000000000000000000000600082015250565b6000613553600e83612c99565b915061355e8261351d565b602082019050919050565b6000602082019050818103600083015261358281613546565b9050919050565b7f4e6f7468696e6720746f2077697468647261773b20636f6e747261637420626160008201527f6c616e636520656d707479000000000000000000000000000000000000000000602082015250565b60006135e5602b83612c99565b91506135f082613589565b604082019050919050565b60006020820190508181036000830152613614816135d8565b9050919050565b600081905092915050565b50565b600061363660008361361b565b915061364182613626565b600082019050919050565b600061365782613629565b9150819050919050565b7f4661696c656420746f2073656e64204574686572000000000000000000000000600082015250565b6000613697601483612c99565b91506136a282613661565b602082019050919050565b600060208201905081810360008301526136c68161368a565b9050919050565b7f4e487b7100000000000000000000000000000000000000000000000000000000600052601160045260246000fd5b600061370782612d40565b915061371283612d40565b925082820261372081612d40565b91508282048414831517613737576137366136cd565b5b5092915050565b7f4e487b7100000000000000000000000000000000000000000000000000000000600052601260045260246000fd5b600061377882612d40565b915061378383612d40565b9250826137935761379261373e565b5b828204905092915050565b7f596f7520646f6e27742073656e6420656e6f756768207468652066656520746f60008201527f2063726561746520736f6e670000000000000000000000000000000000000000602082015250565b60006137fa602c83612c99565b91506138058261379e565b604082019050919050565b60006020820190508181036000830152613829816137ed565b9050919050565b600081905092915050565b600061384682612c8e565b6138508185613830565b9350613860818560208601612caa565b80840191505092915050565b6000613878828461383b565b915081905092915050565b60008190508160005260206000209050919050565b60006020601f8301049050919050565b600082821b905092915050565b6000600883026138e57fffffffffffffffffffffffffffffffffffffffffffffffffffffffffffffffff826138a8565b6138ef86836138a8565b95508019841693508086168417925050509392505050565b6000819050919050565b600061392c61392761392284612d40565b613907565b612d40565b9050919050565b6000819050919050565b61394683613911565b61395a61395282613933565b8484546138b5565b825550505050565b600090565b61396f613962565b61397a81848461393d565b505050565b5b8181101561399e57613993600082613967565b600181019050613980565b5050565b601f8211156139e3576139b481613883565b6139bd84613898565b810160208510156139cc578190505b6139e06139d885613898565b83018261397f565b50505b505050565b600082821c905092915050565b6000613a06600019846008026139e8565b1980831691505092915050565b6000613a1f83836139f5565b9150826002028217905092915050565b613a3882612c8e565b67ffffffffffffffff811115613a5157613a50612f30565b5b613a5b8254613336565b613a668282856139a2565b600060209050601f831160018114613a995760008415613a87578287015190505b613a918582613a13565b865550613af9565b601f198416613aa786613883565b60005b82811015613acf57848901518255600182019150602085019450602081019050613aaa565b86831015613aec5784890151613ae8601f8916826139f5565b8355505b6001600288020188555050505b505050505050565b7f596f7520646f6e27742073656e6420656e6f756768207468652066656520746f60008201527f2063726561746520616c62756d00000000000000000000000000000000000000602082015250565b6000613b5d602d83612c99565b9150613b6882613b01565b604082019050919050565b60006020820190508181036000830152613b8c81613b50565b9050919050565b7f4552433732313a20696e76616c696420746f6b656e2049440000000000000000600082015250565b6000613bc9601883612c99565b9150613bd482613b93565b602082019050919050565b60006020820190508181036000830152613bf881613bbc565b9050919050565b7f4e6f742065786973742021000000000000000000000000000000000000000000600082015250565b6000613c35600b83612c99565b9150613c4082613bff565b602082019050919050565b60006020820190508181036000830152613c6481613c28565b9050919050565b7f596f7520646f206e6f7420746865206f776e6572206f662074686973204d555a60008201527f7300000000000000000000000000000000000000000000000000000000000000602082015250565b6000613cc7602183612c99565b9150613cd282613c6b565b604082019050919050565b60006020820190508181036000830152613cf681613cba565b9050919050565b7f5468697320736f6e6720616c726561647920696e20616e6f7468657220616c6260008201527f756d210000000000000000000000000000000000000000000000000000000000602082015250565b6000613d59602383612c99565b9150613d6482613cfd565b604082019050919050565b60006020820190508181036000830152613d8881613d4c565b9050919050565b6000613d9a82612d40565b91507fffffffffffffffffffffffffffffffffffffffffffffffffffffffffffffffff8203613dcc57613dcb6136cd565b5b600182019050919050565b7f4552433732313a2061646472657373207a65726f206973206e6f74206120766160008201527f6c6964206f776e65720000000000000000000000000000000000000000000000602082015250565b6000613e33602983612c99565b9150613e3e82613dd7565b604082019050919050565b60006020820190508181036000830152613e6281613e26565b9050919050565b7f54686520736f6e67206973206e6f742065786973742100000000000000000000600082015250565b6000613e9f601683612c99565b9150613eaa82613e69565b602082019050919050565b60006020820190508181036000830152613ece81613e92565b9050919050565b7f54686520736f6e67206973206e6f74206578697374206f72206e6f742070756260008201527f6c69736865640000000000000000000000000000000000000000000000000000602082015250565b6000613f31602683612c99565b9150613f3c82613ed5565b604082019050919050565b60006020820190508181036000830152613f6081613f24565b9050919050565b7f54686520616c62756d206973206e6f7420657869737421000000000000000000600082015250565b6000613f9d601783612c99565b9150613fa882613f67565b602082019050919050565b60006020820190508181036000830152613fcc81613f90565b9050919050565b7f54686520616c62756d206973206e6f74207075626c6973686564210000000000600082015250565b6000614009601b83612c99565b915061401482613fd3565b602082019050919050565b6000602082019050818103600083015261403881613ffc565b9050919050565b600061404b828561383b565b9150614057828461383b565b91508190509392505050565b7f4f776e61626c653a206e6577206f776e657220697320746865207a65726f206160008201527f6464726573730000000000000000000000000000000000000000000000000000602082015250565b60006140bf602683612c99565b91506140ca82614063565b604082019050919050565b600060208201905081810360008301526140ee816140b2565b9050919050565b7f4552433732313a207472616e736665722066726f6d20696e636f72726563742060008201527f6f776e6572000000000000000000000000000000000000000000000000000000602082015250565b6000614151602583612c99565b915061415c826140f5565b604082019050919050565b6000602082019050818103600083015261418081614144565b9050919050565b7f4552433732313a207472616e7366657220746f20746865207a65726f2061646460008201527f7265737300000000000000000000000000000000000000000000000000000000602082015250565b60006141e3602483612c99565b91506141ee82614187565b604082019050919050565b60006020820190508181036000830152614212816141d6565b9050919050565b7f4f776e61626c653a2063616c6c6572206973206e6f7420746865206f776e6572600082015250565b600061424f602083612c99565b915061425a82614219565b602082019050919050565b6000602082019050818103600083015261427e81614242565b9050919050565b7f45524337323155524953746f726167653a2055524920736574206f66206e6f6e60008201527f6578697374656e7420746f6b656e000000000000000000000000000000000000602082015250565b60006142e1602e83612c99565b91506142ec82614285565b604082019050919050565b60006020820190508181036000830152614310816142d4565b9050919050565b7f4552433732313a20617070726f766520746f2063616c6c657200000000000000600082015250565b600061434d601983612c99565b915061435882614317565b602082019050919050565b6000602082019050818103600083015261437c81614340565b9050919050565b7f4552433732313a207472616e7366657220746f206e6f6e20455243373231526560008201527f63656976657220696d706c656d656e7465720000000000000000000000000000602082015250565b60006143df603283612c99565b91506143ea82614383565b604082019050919050565b6000602082019050818103600083015261440e816143d2565b9050919050565b600081519050919050565b600082825260208201905092915050565b600061443c82614415565b6144468185614420565b9350614456818560208601612caa565b61445f81612cd4565b840191505092915050565b600060808201905061447f6000830187612dd5565b61448c6020830186612dd5565b6144996040830185612ebe565b81810360608301526144ab8184614431565b905095945050505050565b6000815190506144c581612bff565b92915050565b6000602082840312156144e1576144e0612bc9565b5b60006144ef848285016144b6565b91505092915050565b7f4552433732313a206d696e7420746f20746865207a65726f2061646472657373600082015250565b600061452e602083612c99565b9150614539826144f8565b602082019050919050565b6000602082019050818103600083015261455d81614521565b9050919050565b7f4552433732313a20746f6b656e20616c7265616479206d696e74656400000000600082015250565b600061459a601c83612c99565b91506145a582614564565b602082019050919050565b600060208201905081810360008301526145c98161458d565b905091905056fea2646970667358221220c093a1084bc7df0afe9e2c92d3bc35efa3d7044fad870f383485275e825a9b8164736f6c63430008120033",
  "linkReferences": {},
  "deployedLinkReferences": {}
}